:02000002D0002C
:1040000000400D00487C0D00000006000C0005017A
:084010000401BD0B00000000DB
:04401800B8720D006D
:1040200009480A49884208B505D0094A824202D0A7
:10403000121A03F05DF80748074A0021121A03F02C
:1040400065F8014808BD00BF34E30320B47B0D00D0
:10405000A0E30320A0E30320F0E7032070B5074EA0
:10406000074C01F08BFBA41BA4080025A54200D13E
:1040700070BD56F8043B98470135F7E7807B0D008B
:10408000A47B0D0000F04CBC08B500F055FDBDE868
:10409000084001F035BB01F0BDB801F0BBB801F03C
:1040A000C1B80078B0FA80F040097047012303706E
:1040B00070470000014B01221A70704734E303205F
:1040C00038B51B4B1B784BB30F2002F0AEF90546F9
:1040D00001F07CFCE9170446284602F0C5FC10A359
:1040E000D3E9002302F0F6FC0FA3D3E9002302F08A
:1040F0001BFE104B002202F035FB0F4B002202F09A
:10410000E9FC41EC100B0221204601F07DFA01F0A0
:104110005DFCBDE83840094901F085B938BD00BFF4
:104120006666666666660A400000000000FEAF40F4
:1041300034E303200000E03F00005940CC720D0042
:1041400037B504460846019103F016F86368A26883
:10415000451CE818904208D8206801992A4618445E
:1041600002F0C6FF60682844606003B030BD000004
:1041700038B584690A4B036005467CB16368013B2E
:1041800063605BB9236820469B689847A368013B3E
:10419000A3601BB923682046DB689847284638BDD2
:1041A000CC780D0008B500F071FE034B1860BDE837
:1041B000084001F01FB800BFD4E7032003682BB10B
:1041C0004268934202D2184602F07CBF002070473A
:1041D00038B50568044645B143689D4205D2284676
:1041E00002F0CAFF013005442560204638BD0000BA
:1041F00038B504460B46D0E901012568044A091A7E
:10420000284401F017F8636801300344636038BD47
:10421000CF720D0038B504460B46D0E90101256880
:10422000044A091A284401F005F863680130034480
:10423000636038BDD2720D0008B500234377006873
:1042400001F0AEFEBDE8084000F0ABBD2DE9F04343
:1042500001EB02098FB04945CDE9051980460D46AD
:10426000164680F0928005A80F88FFF7B1FF03681B
:10427000994540F28A8005A8FFF7A0FF47F2762310
:104280009F42C4B200F0A98027D847F261239F4221
:104290007ED047F264239F4242D046F670539F423D
:1042A00028D1634E634FDFF8A081059B99456CD9F7
:1042B00005A8FFF783FFC4B205A8FFF789FF059D96
:1042C0003146284602F04EFF0146E0B9204602F092
:1042D0006FF805A8FFF77CFFE7E747F264739F429A
:1042E0003FD047F276739F4200F0878047F26173B8
:1042F0009F425FD00023CDE9013302220092B8F83B
:104300001A20194629E03946284602F02BFF28B129
:104310004146284602F026FF0028DAD10121D5E7E0
:104320000AAB4549079307A810230025CDE9085398
:10433000FFF706FF07A82146FFF75AFF204602F0C5
:1043400061F8014607A8FFF765FF089BCDE9015515
:10435000013B0093079B2A461421404600F010FBC6
:1043600013E005A8FFF734FF036899450DD9A4B2FF
:104370000121204602F01CF805A8FFF71FFF011ECF
:1043800018BF0121204602F024F80FB0BDE8F083E9
:104390000AAB079307A8102328490025CDE9085345
:1043A000FFF7CEFE07A82146FFF722FF204602F0C6
:1043B0003CF8C6E705A8FFF70BFF03689945E4D969
:1043C000A4B20121204601F0F3FF05A8FFF7F6FE95
:1043D0000146204602F040F8D7E720468DF82840F5
:1043E00000F0E0FC03460AA823B1154A934201D02D
:1043F0009847CAE700F0D3FCC7E705A8FFF7E8FE37
:10440000059B8DF81C405D1B751B2046CDE90A35C8
:104410000C9500F0D1FC03460AA907A823B1094A6C
:10442000934201D09847B0E700F0BAFCADE700BF77
:10443000D6720D00D9720D00E1720D00E4720D000C
:104440009F4D0D00A14D0D00DD720D002DE9F041D5
:104450008CB004AF044605220068391D01F0ECF869
:10446000B8B3052804D000202037BD46BDE8F08150
:10447000B7F80520130A43EA0223B7F80720A7F884
:10448000053099B2130A43EA02231FFA83F8A7F80A
:1044900007300029E7D03B7923BB00F07EFC0246C1
:1044A000E060607FB7F80730C0B9B7F805100129A0
:1044B00014D1092B0FD0C82B01D0042BD4D1012546
:1044C00062612046657700F009FBFFF76BFE00F0A4
:1044D00068FC0120C8E703236377C5E7581F18BFAE
:1044E0000120C1E7B8F5806F03D92046FFF7A4FE8D
:1044F000EFE708F1080323F007036E46ADEB030D69
:1045000004AD20684246294601F096F880454FF0F8
:1045100000007FD1B7F80730E85400F03EFC3B794B
:10452000E060142B00F0A68048D80F2B00F0A2808A
:1045300007D8022B48D0062B51D02046FFF77CFE2F
:1045400058E0112BF9D100233B70B7F807302B440A
:104550009D42C7E903534DD207F10C00D5F8008006
:10456000FFF736FEFB68B7F807105D1B4D1BC7E968
:1045700005357B68FD61C3F30F236383644B984566
:1045800000F0BF8000F28C80A3F57F236FF40072EF
:104590001344984500F09D8079D8A3F50033063B7D
:1045A000984500F09C8003F50033033398456BD1A8
:1045B00007F11401384600F0F3FB65E0292B1BD00E
:1045C000372B17D01D2BB8D1637F43B901236377F5
:1045D000204600F083FAFFF7E5FD00F0E2FB002340
:1045E000C821B7F805200091CDE9013319462046CE
:1045F00000F0C6F901200DE0A3681BB9402000F0CF
:1046000009FEA060B7F80780A8444545C7E90558EA
:1046100002D30020B54627E729464022A06802F0D1
:10462000B3FDA368002583F83F5007F11400FFF79E
:10463000CFFD036843451BD2786920B1BB6998421E
:1046400014D202F043FD85B2206801F0A9FC236872
:10465000A2685A631D870023637700F09EFBA0F5D4
:104660009C500838C4E903006061C3E72846EAE7C4
:104670005025E9E77B68B7F80720C3F30F2363836E
:1046800029462046FFF7E2FD00236383B2E7214B72
:104690009845F9D107F11401384600F081FBF3E7A2
:1046A0001D4B984521D003F19F6303F5003303F5BB
:1046B000807398451FD003F16E4303F5302303F553
:1046C00086739845E0D107F11401384600F068FB85
:1046D000DAE707F11401384600F062FBD4E707F18E
:1046E0001401384600F05CFBCEE707F114013846B0
:1046F00000F056FBC8E707F11401384600F050FB04
:10470000C2E707F11401384600F04AFBBCE700BFDE
:10471000766673006462670061636F6E2DE9F04135
:1047200004468CB00D46FFF73DFD637F022B00F081
:10473000A880237F628B0133DBB223770AB1012586
:1047400016E0022BFBD8206801F049FAB8B125B970
:10475000206801F0CBFB002811DD2046FFF776FE34
:1047600005460028F4D1206801F01AFC00F019FB7E
:10477000237F013B237728460CB0BDE8F08100F091
:104780000CFB0646206801F02AFA677F012F0546D8
:1047900029D120B966612046FFF74EFDE8E7E368BE
:1047A0004FF21862F31A934204D92046FFF744FDF2
:1047B0000025DDE74AF6C872934203D82369F31A4D
:1047C0009342BCD9636941F27072F31A9342B6D92D
:1047D0000023CDE9013300931A460621204600F05C
:1047E000CFF86661ABE7002FA9D16269B21A40B178
:1047F00041F270739A42A2D9206801F0D1FB677729
:10480000D6E741F288339A4299D9206801F0C8FB73
:10481000D4F800C0DCF834E0BCF83880BEF1000FFA
:104820000BD02B4642467146604601F017FC431EF2
:104830005D425D418DB966619AE7134B06930CF1B9
:1048400020070FCF07AD0FC53B682B70424673465C
:1048500006A9604601F0CFFAE9E7636805930126EF
:104860001846268302F088FC0022CDE90122059B30
:10487000009032461D21204600F082F823696361D2
:1048800076E7002577E700BFFC770D002DE9F041C2
:1048900015468CB00446043540F6B8300F469846AD
:1048A00000F079FA0FCD01AE0FC62B683370676048
:1048B00000F073FAA0F59C50083801AFC4E903007A
:1048C00060610FCF07AE0FC63B68337007AF0FCFE5
:1048D00025684FF0000CC5F834C0A5F838802035A5
:1048E0000FC533682B70664644F24F67206801F0AD
:1048F00057FB667700F051FA0546637F012B0CD019
:1049000000F04BFA401BB84204D800212046FFF7C4
:1049100005FFF2E7637F012BE8D10CB0BDE8F08121
:1049200000B589B0A2230093AC22EA23A72102A8F4
:1049300000F0D4FF42F2823302AA0D490D48FFF77E
:10494000A5FF01F043F84FF4165101F033F80021B0
:104950000F2001F02DFD0021032001F029FD064A62
:1049600006484FF47A7100F09EF909B05DF804FB37
:10497000E7720D00A4E30320C1400D0000E4032012
:104980002DE9F04F83B000AF044600683D6B8846C8
:1049900016469946EB4601F022F900287FD0B8F17F
:1049A0001D0F04D84C4B23FA08F3DB0702D4637FB6
:1049B000012B74D146B9668B36B9238B01339BB278
:1049C000002B71D02383268BA8F10C03082B16D85B
:1049D000D4E90323934238BF134603F1420A00F09F
:1049E000DCF9AAEB0000002860DB00212046FFF77D
:1049F00095FE00F0D2F9AAEB00000028F5DAB9F133
:104A0000000F5AD06B1D7A6B002ABA6B08BF0022C8
:104A100003EB020A0AF1070323F00703ADEB030DD2
:104A2000BB6BC7F804D0EA18C2F3072376BA43EA8F
:104A300002238DF80080ADF80160ADF80330B9F1C4
:104A4000000F3CD0002D3AD02A4649460DF1050012
:104A500002F04EFB681D7B6B3BB1BB6B2BB11A4662
:104A60007B68796B184402F043FB002555452AD238
:104A7000AAEB05027B682068B2F5806F28BF4FF46F
:104A80008062591901F095F80646002000F083F97C
:104A9000BEB9206801F084FA667700F082F90C371D
:104AA000DD46BD46BDE8F08F01238BE7217F00295D
:104AB000A5D12046FFF732FEA1E70523A3E7052095
:104AC000C9E73544D2E703D02046FFF7B5FBE6E758
:104AD00000F063F92061E2E74500002000B595B0E1
:104AE00004AB00220193492300930292034B11214E
:104AF000FFF746FF15B05DF804FB00BF32730D00F1
:104B000030B5ADF2244D08AB00240546059305A849
:104B10004FF48063CDE90643FFF712FB069B013B90
:104B20000093CDE90144059B22460E212846FFF75C
:104B300027FF0DF2244D30BD10B500211048FFF7BE
:104B4000EDFD104800F0DCF8032001F05BFC0128CB
:104B500015D10D4C237893B10C490948FFF7D0FFCC
:104B600000F034FF0A4900F05EFC00232370094A7C
:104B70000448BDE8104041F2883100F09DB810BDF6
:104B8000A4E3032000E4032034E3032008730D00B2
:104B900020730D00B5400D0038B5114D00210120E6
:104BA00000F0ACFA284601F045FA05F11C0000F0CF
:104BB00051FE002428460B4A0B496C632C8701F0F8
:104BC000B1FC0A4B0A489C61C3E90054C3E90244A2
:104BD000C3E904449C83BDE8384000F00BB800BF33
:104BE000C4E30320A0E3032071410D00A4E30320EC
:104BF00000E403204FF0FF33C0F84032704770B537
:104C0000044600F0CAF80025064660192422002157
:104C100002F07CFA66512435B5F5107FF5D10023FA
:104C2000C4F8403270BDD0F840220F2A034609DC98
:104C300000200433242202FB00F1595821B1013035
:104C40001028F8D14FF0FF3070472DE9F84398460F
:104C5000D0F84032002B04468946174601DAFFF7A8
:104C6000CEFF2046FFF7DFFF051E19DBC7B1242664
:104C70006E43A0199DF820300373099B4361012303
:104C80000377C0E90178C0F8109000F086F8A051D1
:104C9000D4F840320133C4F840322846BDE8F883E6
:104CA0004FF0FF35F9E707B50023CDE90033FFF7F3
:104CB000CCFF03B05DF804FB07B500234FF0010CF7
:104CC000CDE9003CFFF7C1FF03B05DF804FB0F29FD
:104CD00038B5044613D8D0F8403283B1242202FB01
:104CE00001F52844436853B1002102F00FFA00F0A7
:104CF00054F86051D4F84032013BC4F8403238BD1A
:104D00002DE9F04105462C4600F047F805F51076F0
:104D10002B46002701214FF0020C5A681F62A2B1F6
:104D2000D3F80080D3F810E0A0EB080272450CD352
:104D3000B2FBFEF20EFB02821A601A7F2AB1D3F890
:104D400014E0BEF1000F19D119622433B342E4D14B
:104D50000026236A5BB1227B6368D2B1A0689847C2
:104D6000236A022B03D131462846FFF7B0FF0136F4
:104D7000102E04F12404ECD1BDE8F0819A69964527
:104D8000E3D9013296459A618CBF0A4662461A629F
:104D9000DBE79847E4E700F079BC00F077B87047AC
:104DA0007047704703065ABF024B53F8200000209B
:104DB000704700BF80730D0003065ABF024B53F8C3
:104DC00020000020704700BF80750D0008B5024B21
:104DD0001B689B68019308BD6802030008B5024B7D
:104DE0001B68DB68019308BD6802030008B5024B2D
:104DF0001B685B68019308BD2C02030008B5024BD9
:104E00001B689B68019308BD2C02030008B5024B88
:104E10001B68DB68019308BD2C02030008B5024B38
:104E20001B681B69019308BD2C02030008B5024BE7
:104E30001B685B69019308BD2C02030008B5024B97
:104E40001B689B6A019308BD2C02030008B5024B46
:104E50001B681B6B019308BD2C02030008B5024BB5
:104E60001B689B6F019308BD2C02030008B5024B21
:104E70001B685B69019308BD6C02030008B5024B17
:104E80001B685B68019308BD1802030008B5024B5C
:104E90001B685B69019308BD1802030008B5024B4B
:104EA0001B685B6C019308BD4802030008B5024B08
:104EB0001B689B6C019308BD4802030008B5024BB8
:104EC0001B685B69019308BD6402030008B5024BCF
:104ED0001B681B6A019308BD6402030008B5024BFE
:104EE0001B689B6A019308BD6402030008B5024B6E
:104EF0001B681B68019308BD3C02030008B5024B08
:104F00001B68DB68019308BD3C02030008B5024B37
:104F10001B681B69019308BD3C02030008B5024BE6
:104F20001B685B69019308BD3C02030008B5024B96
:104F30001B689B69019308BD3C02030008B5024B46
:104F40001B68DB69019308BD3C02030008B5024BF6
:104F50001B681B6A019308BD3C02030008B5024BA5
:104F60001B689B6A019308BD3C02030008B5024B15
:104F70001B681B6A019308BD2802030008B5024B99
:104F80001B685B6A019308BD2802030008B5024B49
:104F90001B689B6A019308BD2802030008B5024BF9
:104FA0001B68DB6A019308BD2802030008B5024BA9
:104FB0001B681B6B019308BD2802030008B5024B58
:104FC0001B685B6B019308BD2802030008B5024B08
:104FD0001B681B6C019308BD2802030008B5024B37
:104FE0001B689B69019308BD3802030008B5024B9A
:104FF0001B68DB69019308BD3802030008B5024B4A
:105000001B681B6A019308BD3802030008B5024BF8
:105010001B689B6A019308BD3802030008B5024B68
:105020001B681B6B019308BD3802030008B5024BD7
:105030001B689B6B019308BD3802030008B5024B47
:105040001B68DB69019308BD3002030008B5024B01
:105050001B681B6A019308BD3002030008B5024BB0
:105060001B681B68019308BD4C02030008B5024B86
:105070001B685B68019308BD4C02030008B5024B36
:105080001B681B69019308BD4C02030008B5024B65
:105090001B685B69019308BD4C02030008B5024B15
:1050A0001B689B69019308BD4C02030008B5024BC5
:1050B0001B68DB69019308BD4C02030008B5024B75
:1050C0001B681B6A019308BD4C02030008B5024B24
:1050D0001B681B6D019308BD6002030008B5024BFD
:1050E0001B685B68019308BD2002030008B5024BF2
:1050F0001B685B69019308BD2002030008B5024BE1
:105100001B68DB6A019308BD2002030008B5034B4E
:105110001B68D3F88830019308BD0000200203000B
:1051200008B5034B1B68D3F89430019308BD000009
:105130002002030008B5024B1B685B68019308BDA1
:105140004002030008B5024B1B689B68019308BD31
:105150004002030008B5024B1B68DB68019308BDE1
:105160004002030008B5024B1B681B69019308BD90
:105170004002030008B5024B1B685B69019308BD40
:105180004002030008B5024B1B689B69019308BDF0
:105190004002030008B5024B1B68DB69019308BDA0
:1051A0004002030008B5024B1B681B6A019308BD4F
:1051B0004002030008B5024B1B681B6B019308BD3E
:1051C0004002030008B5024B1B685B6B019308BDEE
:1051D0004002030008B5024B1B681B6C019308BD1D
:1051E0004002030008B5024B1B685B6C019308BDCD
:1051F0004002030008B5024B1B689B68019308BD81
:105200004402030008B5024B1B68DB6B019308BD29
:105210004402030008B5024B1B681B68019308BDDC
:105220001C02030008B5024B1B685B68019308BDB4
:105230001C02030008B5024B1B68DB69019308BD23
:105240001C02030008B5024B1B68DB6B019308BD11
:105250001C02030008B5024B1B685B6C019308BD80
:105260001C020300002240681146FFF79BBF00228A
:1052700040681146FFF7A6BF40680022FFF79ABFBB
:105280004068002281F00101FFF784BF00234068DD
:105290001A461946FFF776BF002340681A4619469A
:1052A000FFF768BF002240681146FFF75BBF00228E
:1052B00040681146FFF746BF406800220221FFF711
:1052C00049BF002340681A46FFF734BF024B032250
:1052D0005A60024A1A60704750E6032088770D0032
:1052E00010B5044608462170FFF7A8FE002363604E
:1052F000204610BD10B50446006818B1FFF792FFB4
:105300000023236010BD10B50446FFF7F3FF2046CD
:1053100010BD000010B5094B094C022200201A6094
:10532000084B2060A080A071A360FFF7D7FE204645
:10533000054A0649BDE8104001F0F4B864E60320D0
:1053400058E603200000FFFFA0E3032007530D00F1
:1053500070B586B0064601AD684600F0CBFA0FCDB9
:10536000341D0FC42B682370304606B070BD10B5D5
:105370000446006808B1FFF799FD204610BD10B53E
:105380008368044613B1032201469847204610BDA6
:1053900010B5064C002320462360FFF77FFD204612
:1053A000034A0449BDE8104001F0BCB868E6032098
:1053B000A0E303206F530D00F8B506460D468F1885
:1053C0000024BD420CD0336815F8011B9B683046A1
:1053D0009847031E01DB1C44F3E7002C08BF1C4662
:1053E0002046F8BD13B50446084659B1019101F0B5
:1053F000C3FE23680199DB680246204602B0BDE87F
:105400001040184702B010BD03689B68184738B5B4
:105410000D210546FFF7F8FF0A2104462846FFF74D
:10542000F3FF204438BD38B50546FFF7DBFF0446DF
:105430002846FFF7ECFF204438BD30B58BB0002381
:105440008DF82430012A98BF0A2209AC0D46B1FB21
:10545000F2F101FB125303F0FF03092B94BF303329
:105460003733DBB2AA4204F8013DEFD92146FFF7FA
:10547000B9FF0BB030BD00002DE9F74F55EC104BD4
:1054800006460F4610EE102A10EE100A2B4629464B
:1054900001F0BAFD40B153493046FFF7A3FF824601
:1054A000504603B0BDE8F08F25F000494E4B4FF059
:1054B000FF322046494601F0A7FD48B94A4B4FF05C
:1054C000FF322046494601F081FD08B94749E3E72C
:1054D000474B4FF060422046294601F08BFD08B152
:1054E0004449D9E7444B4FF060422046294601F039
:1054F00063FD0028F4D1002200232046294601F054
:105500005BFDD0B12D213046FFF77EFF05F1004352
:1055100082461D463949DFF8EC904FF0000B002021
:105520004FF000085FFA8BF39F4208D942464B4682
:1055300001F0FAFB0BF1010BF4E78246EAE72246A1
:105540002B4601F011F90D46044601F09BFD804603
:1055500001F046FA02460B462046294601F002F9C0
:105560000A2204460D4630464146FFF766FF824454
:1055700027B123493046FFF735FF8244DFF8849096
:105580004FF00008013FFFB2FF2F89D042464B4643
:105590002046294601F09EFA04460D4601F04AFDD8
:1055A000B0F1000B1ADA2D213046FFF72DFFCBF1B9
:1055B000000103460A2230460193FFF73EFF019B9C
:1055C00018448244584601F01BFA02460B46204616
:1055D000294601F0C7F804460D46D3E75946002393
:1055E000E8E700BFC4770D00FFFFEF7FC8770D002D
:1055F000FFFFEF41CC770D00FFFFEFC10000E03F60
:10560000D0770D0000002440C9B2FFF735BF10B5B8
:105610000446FFF73BFCE060236820465B6998473F
:10562000002808DAFFF732FCE368C01AA368984242
:10563000F2D34FF0FF3010BDF8B506460D461746C1
:105640000024BC4207D03046FFF7E1FF031E02DB17
:105650002B550134F5E72046F8BD002340681A4673
:105660001946FFF787BD0000014B024A1A607047D8
:105670006CE60320D2770D00024B1A68024B1A60C9
:10568000704700BF38E3032070E603200021FFF7D6
:105690002DBD10B50446FFF772FE204610BD000078
:1056A0000348044A04490023836000F03BBF00BF65
:1056B00074E60320A0E3032093560D00014B18600D
:1056C000704700BF3CE3032008B50B4B43B100F02B
:1056D0007DF903681B699847002801DDAFF300805E
:1056E000064B43B100F0F0F903681B6998470028A6
:1056F00001DDAFF3008008BD0000000000000000E5
:1057000008B5FFF7E1FFFFF7C1FB014B186008BDCB
:10571000D4E703200248034A0349121A01F0E8BC07
:1057200000F4032004F40320B07B0D0007B5002330
:1057300000931A466FF07701FFF7F2FC03B05DF8B3
:1057400004FB000007B543880A2B08D0502B0BD16F
:10575000094B1B684BB103B05DF804EB1847FFF72A
:10576000E5FF03B05DF804FB002300931A466FF0D9
:105770007701FFF7D5FCF4E788E6032038B5124C33
:105780001248134D0021FFF765FD2368AB42114B12
:105790000CBF012200221A7002D0FFF7BBFF256068
:1057A000FFF76CFB044601F0B9FC0B4B13B120462C
:1057B000AFF3008000210848FFF724FDBDE8384022
:1057C00006480021FFF7A2BC00F40320BD560D00DF
:1057D0001E1C279A84E603200000000045570D0098
:1057E000704710B51821044600F0A1FE204610BDF8
:1057F000F0B5037D062B8DB00E4600F104074FF087
:10580000000412D000F1080515F8011D0A223046E7
:10581000FFF713FEAF42044419D0002CF4D02E2120
:105820003046FFF7F1FD0444EEE72F236A46394680
:105830000A208DF80040FFF741FB684601F09CFC10
:1058400033680246DB68694630469847044620467E
:105850000DB0F0BD10B5054B0446112240F8043BD5
:10586000002101F053FC204610BD00BFFC770D0065
:105870000346074A10B543F8042B01F1100251F812
:10588000044B43F8044B9142F9D10A781A7010BDC9
:10589000FC770D00037D042B04D14068003818BF4D
:1058A00001207047062B07D143683BB983682BB9A9
:1058B000C3681BB90069F1E70020704701207047F9
:1058C00010B59DF8084044EA032343EA024242EA45
:1058D000016104234160037510BD000037B5044D1C
:1058E00005609DF818500095FFF7EAFF03B030BD42
:1058F000FC770D0013B5054B0360CB7800938B78D4
:105900004A780978FFF7DCFF02B010BDFC770D0084
:1059100041747047704708B50021007CFFF7BEFB5B
:1059200040EAE07008BD08B50121007CFFF7B6FB36
:1059300040EAE07008BD08B5007CFFF7A7FB20EA4D
:10594000E07008BD08B5007CFFF798FB20EAE07026
:1059500008BD13B50446007C0191FFF797FB0028B2
:10596000019901DC607C20B1207CFFF79FFB20EADD
:10597000E07002B010BD007CFFF7A0BB10B5142191
:10598000044600F0D4FD204610BD000010B54FF4D1
:105990007A73044608460021C4E90113044B2360CE
:1059A0000123207463741146FFF758FB204610BD95
:1059B00010780D00007C0022FFF758BB10B51422B0
:1059C0000446002101F0A2FB204610BD10B5104C8A
:1059D00088B003A8FFF7F2FF2178BFF35B8F11F0C7
:1059E000010111D120460191FEF75BFB019958B1ED
:1059F00003AA0848FFF7CAFF2046FEF757FB064AEE
:105A00000649044800F08EFD024808B010BD00BFF2
:105A10008CE6032090E60320A0E3032015590D0037
:105A200070474174704708B5007CFFF797FA20EA89
:105A3000E07008BD08B5007CFFF768FA20EAE07066
:105A400008BD08B5007CFFF771FA40EAE07008BDB8
:105A500008B5007CFFF762FA40EAE07008BD007C00
:105A6000FFF76CBA37B5457C04462DB1207C03B0F6
:105A7000BDE83040FFF742BA007C0191FFF76EFAB3
:105A800000280199F2DC284603B030BD10B514217E
:105A9000044600F04CFD204610BD000010B54FF04C
:105AA000000C0446084611464FF47A72C4E901C25C
:105AB000044A22600122207462741A46FFF716FA23
:105AC000204610BD40780D0013B50E4C2178BFF371
:105AD0005B8F11F0010112D120460191FEF7E1FA2E
:105AE000019960B1084A094B0948FFF7D7FF2046E2
:105AF000FEF7DCFA074A0849054800F013FD0448A0
:105B000002B010BDA4E60320A8E603202CE7032082
:105B1000B0E70320A0E30320215A0D007047F8B539
:105B2000064615460C468F18BC4206D0336814F85A
:105B3000011B9B6830469847F6E72846F8BD007C75
:105B40000022FFF713BA007C0021FFF717BA007C90
:105B50000021FFF71BBA007C0021FFF71FBA007C71
:105B60000021FFF723BA10B51421044600F0DFFC32
:105B7000204610BD10B54FF47A7304460846002144
:105B8000C4E90113034B236020741146FFF71EFA8A
:105B9000204610BD70780D0013B503688DF807100E
:105BA000DC6B01224FF0FF330DF10701A04702B07B
:105BB00010BD10B40368DC6B4FF0FF33A4465DF8F2
:105BC000044B604713B5134602688DF80710D46B79
:105BD0000DF107010122A04702B010BD704738B592
:105BE00043691A68002A054610DAB3F88620B3F82C
:105BF00084309A420AD103681B699847044628B941
:105C00002B682846DB6A9847204638BD0120FCE710
:105C100043691868C043C00F70477047064B9942EC
:105C200010B500F10C0405D0084600F085FC0028F2
:105C300008BF0024204610BDBC770D0010B5AC2174
:105C4000044600F074FC204610BDFEF728BA2DE98A
:105C5000F0414FF0000886B01D46C0F804800446AD
:105C60000E4617464146102202A801F04FFA6B1C5F
:105C700009D04FF47A70B5FBF0F3CDE9023800FBA0
:105C8000135358430490606910230093006802ABDB
:105C900041F2050240F6FF71FFF7A0F9002807DA8C
:105CA000FFF7D0FA03686360002006B0BDE8F0811A
:105CB0006069002300683A463146FFF7AFF9031EDA
:105CC000EEDB1846F1E7000038B584690A4B036043
:105CD00005467CB16368013B63605BB9236820467D
:105CE0009B689847A368013BA3601BB923682046C3
:105CF000DB689847284638BDCC780D0010B50446BF
:105D0000FFF7E2FF20461C2100F011FC204610BDE9
:105D100070B54D69054B04468C3544F8043B064686
:105D20000FCD0FC42B682370304670BDFC770D007B
:105D300010B54369B3F88620B3F884309A4204461C
:105D400005D06369B3F884201344187910BD036843
:105D50001B6998470028F4D14FF0FF30F6E710B5E3
:105D60004369B3F88620B3F884309A42044608D0D9
:105D70006369B3F88420511CA3F884101344187984
:105D800010BD03681B6998470028F1D14FF0FF3020
:105D9000F6E7F8B543691746B3F88620B3F88430C0
:105DA0009A4205460E4616D06969B1F88430B1F8BA
:105DB0008640E41ABC4228BF3C46043322461944BC
:105DC000304601F095F96A69B2F884302344A2F8AC
:105DD00084302046F8BD03681B6998470028E3D14A
:105DE0004FF0FF34F5E742690023A2F8843042699E
:105DF000A2F8863070472DE9F0411F4603680C4633
:105E0000DB6A8AB0054616469847237DD5F814808C
:105E1000042B0CBF02200A2006220121FFF706F9FD
:105E2000C8F800006B691B68002B08DA2B6828464D
:105E3000DB6A0024984720460AB0BDE8F081284676
:105E4000FFF7D1FFB7B1002303A9F8B20393ADF870
:105E50001030FFF70BF80028E8D16869062300939B
:105E6000006803AB41F20B0240F6FF71FFF7B6F892
:105E70000028DBD11C22002103A801F047F9237D73
:105E8000042B1DD14FF407733046ADF80C30FFF7EB
:105E900025F8ADF80E006068FFF718F804906B69FC
:105EA0001C22186803A9FFF7A9F80028BED1043402
:105EB0000FCC6D698C350FC523682B700124BAE7B0
:105EC00040F61C233046ADF80C30FFF707F805AE5E
:105ED000ADF80E00231D04F1140718685968324606
:105EE00003C20833BB421646F7D1D8E730B5426942
:105EF000B2F886308BB004462BB1B2F884209A42B7
:105F000001D1FFF770FF61690868002818DBB1F85C
:105F100086507F2D14D804310823C5F1800229440E
:105F2000FFF774F8002813DD6369B3F886200AB917
:105F3000A3F884206369B3F886201044A3F8860090
:105F40006369B3F88600B3F88430C01A0BB030BD73
:105F5000FFF778F903680B2BF2D0FFF773F90368AA
:105F60000B2BEDD020230025CDE90235FFF76AF990
:105F700003680193084B0949009302AA2B4632207B
:105F8000FFF7A4F863691868FFF730F863694FF00A
:105F9000FF321A60D4E700BF97780D0090780D00AB
:105FA00010B5436904461868002801DBFFF71EF8A6
:105FB00063694FF0FF321A606069112200218C3052
:105FC00001F0A4F82046BDE81040FFF70CBF10B563
:105FD000002304460160C0F884308830FFF73AFCA3
:105FE000204610BD73B500234FF47A72C0E9013228
:105FF0000E4A0361026043610446AC200191FEF742
:106000004AF8051E05F10C0608D00123C5E9013345
:10601000074B01992B603046FFF7D9FF2046C4E9B2
:106020000565FFF7E0FE02B070BD00BFCC780D0043
:10603000B0780D0010B54FF0FF310446FFF7D2FFE6
:10604000204610BD10B504460068002801DBFEF7AD
:10605000CDFF204610BD0C30FFF7F4BF2DE9F04313
:106060009846036893B00D460024DB6A064617463F
:10607000984728466B46224621460094FEF7AEFE1E
:106080000546002863D1009B002B4BD05B69002B99
:1060900048D006A8FFF7DEFB009B5C696378022B03
:1060A00004D1211D06A8FFF753F926E00A2B24D1BD
:1060B0001122294601A801F029F8A368002B38D045
:1060C00004F108030DF1040C18341868596862468D
:1060D00003C20833A3429446F7D1062301A90CA8B2
:1060E0008DF81430FFF7C4FB0DF1340CBCE80F0041
:1060F00007AC0FC4DCF80030237006A8FFF7CAFB1A
:1061000080B1336807ADD3F82090124B0C930FCDBC
:106110000DAC0FC42B6823703A4643460CA9304699
:10612000C84705460098FEF751FE284613B0BDE863
:10613000F083E368002BC3D14FF6FF70D4F81090C2
:10614000FEF7C4FE8145BBD104F11401AAE7254640
:10615000E8E700BFFC770D00002240681146FFF71A
:1061600001B8002240681146FFF71CB800224068C1
:106170001146FFF727B840680022FFF71BB84068B8
:10618000002281F00101FFF705B8002340681A469C
:106190001946FEF7F7BF002240681146FEF7D2BF4E
:1061A000406800220221FEF7D5BF002340681A464E
:1061B000FEF7C0BF024B04225A60024A1A607047C1
:1061C000C4E7032018790D00002340681A46FEF743
:1061D000B1BF406800220221FEF7BCBF0022406828
:1061E0001146FEF7AFBF002240681146FEF7BABF66
:1061F000002340681A461946FEF7BCBF00234068DA
:106200001A461946FEF7BEBF40680021FEF7E2BFFE
:1062100040680021FEF7E6BF4068002281F00101DE
:10622000FEF7B8BF40680022FEF7C4BF00224068F6
:106230001146FEF7C7BF002240681146FEF7B2BF05
:106240002DE9F043002495B016460D460746FFF7AA
:1062500001FB214618220EA8009400F057FF4023AE
:10626000CDE90C3421466B460CAA3046FEF7B6FD4C
:10627000044600284CD1024601216868FEF772FFEF
:106280000221804622466868FEF76CFF009E814628
:106290002146002E3CD000293AD17368022B03D04E
:1062A0000A2B11D0F669F4E7B8F1000F0AD0716932
:1062B00006A8043107ADFFF71DFB0FCD3C1D0FC431
:1062C0002B6823704146EDE7B9F1000F01D1494633
:1062D000E8E77469102201A800F018FF06238DF882
:1062E000143001AD04F108031834186859682A46BF
:1062F00003C20833A3421546F7D101A906A807AD8A
:10630000FFF7B6FA0FCD3C1D0FC42B682370DEE7F4
:106310000098FEF75BFD384615B0BDE8F08300003D
:10632000024B034A1A6000225A607047CCE70320F0
:1063300054790D00232813B502D9002002B010BDF6
:10634000A0F10B03022B1AD8174C2178BFF35B8FF7
:1063500011F001010BD120460191FDF7A2FE019938
:1063600028B11248FEF7BCFF2046FDF79FFE0F4BF9
:106370001878FEF76BFE0028DFD10120DEE7012848
:1063800009D800F0A7F80021007CFEF717FE80F086
:106390000100C0B2D2E709380128EED8FFF794FB1C
:1063A000007CFEF7D3FDF2E744E6032048E6032035
:1063B000232838B504460D460AD8FF2908D0FFF730
:1063C000B9FF28B129462046BDE83840FEF716BD82
:1063D00038BD38B504460D46FEF718FDFF2810D02D
:1063E000062804D84D2323FA00F0C30709D4204619
:1063F000FFF7A0FF28B129462046BDE83840FEF748
:106400000DBD38BD10B50446FEF700FD031FDBB21D
:10641000012B08D92046FFF78DFF20B12046BDE8AB
:106420001040FEF703BD002010BD0D2810B5044636
:106430009CBF0E34A4B22046FFF77CFF50B103216D
:106440002046FEF7D3FC032804D12046BDE81040C7
:10645000FEF7FCBC002010BD38B504460D46FFF722
:1064600069FFF0B104212046FEF7C0FC042805D1E5
:10647000A9B22046BDE83840FEF7E0BC0221204624
:10648000FEF7B4FC02280CD12046FEF7BFFC012821
:1064900001D0042805D129462046BDE83840FEF742
:1064A000DDBC38BD38B500232025438014230446C5
:1064B0000380856005610649284600F03AF80449E2
:1064C0006060284600F035F8E060204638BD00BF27
:1064D00088790D0030B50F4D2978BFF35B8F11F02F
:1064E000010487B013D12846FDF7DBFD78B101A880
:1064F000FFF7D8FF01AA21460748FFF73BFB2846D4
:10650000FDF7D4FD054A0649034800F00BF80248A0
:1065100007B030BDD8E70320DCE70320A0E3032069
:106520001D5B0D000B460146184600F0D3BDFDF77C
:10653000B6BDFDF7B2BD0000014900F0F9B800BFDB
:10654000A4790D007FB500241023CDE9023403683F
:1065500000949E698DF8044015466B461268B0475A
:106560009DF8043003F00603062B03BF009B2B604D
:106570000120204604B070BD0098904214BF012055
:106580000620704710B5034B0360044600F0CDF8B9
:10659000204610BDE4790D0010B50446FFF7F2FF68
:1065A00020460821FFF7C3FF204610BD2DE9F0412A
:1065B0001F46DDE90834DDF8188098450646154683
:1065C00007D1079900F0B4F818B165710020BDE853
:1065D000F0813946304600F0ABF80028F6D00123B0
:1065E000C4F800802571A371F0E738B515461C4644
:1065F00000F09EF820B10823E36006232560237194
:1066000038BD73B505460C4601921E4600F090F861
:1066100050B9032E08D82368019A5B6929462046A1
:1066200002B0BDE87040184702B070BD10B5034B12
:1066300003600446FFF7A6FF204610BD447A0D0014
:1066400010B50446FFF7F2FF20460C21FFF76FFF5D
:10665000204610BDF7B5089F974205460E461446E2
:106660000AD0A86802680897156A31462246AC46E7
:1066700003B0BDE8F04060471946019300F058F8B8
:10668000019B0028EDD0062003B0F0BD2DE9F14FAD
:106690000D461946DDE90A4BDDE90CA68146174691
:1066A000984600F045F890B1002D3460377109DB51
:1066B00061198A450CBF06210121B171002001B08A
:1066C000BDE8F08F0235F9D10123B371F6E75445E7
:1066D00006D15946484600F02BF808B17771EDE72E
:1066E000D9F808000368CDE90CA6CDE90A4BDC69AE
:1066F0003A4643462946A44601B0BDE8F04F6047FC
:106700002DE9F04107460C4615461E46FFF76DFF82
:1067100048B9B86803689F692A4633462146BC4693
:10672000BDE8F0416047BDE8F08170470020704748
:10673000814208B50ED0406803782A2B0CD04968F6
:106740000B782A2B08BF013100F00CFDB0FA80F065
:10675000400908BD0120FCE70020FAE781F0004174
:1067600002E000BF83F0004330B54FEA41044FEA36
:10677000430594EA050F08BF90EA020F1FBF54EAD1
:10678000000C55EA020C7FEA645C7FEA655C00F06D
:10679000E2804FEA5454D4EB5555B8BF6D420CDD3E
:1067A0002C4480EA020281EA030382EA000083EAC1
:1067B000010180EA020281EA0303362D88BF30BD61
:1067C00011F0004F4FEA01314FF4801C4CEA1131B7
:1067D00002D0404261EB410113F0004F4FEA033316
:1067E0004CEA133302D0524263EB430394EA050FA1
:1067F00000F0A780A4F10104D5F1200E0DDB02FA10
:106800000EFC22FA05F2801841F1000103FA0EF2A3
:10681000801843FA05F359410EE0A5F120050EF169
:10682000200E012A03FA0EFC28BF4CF0020C43FA9A
:1068300005F3C01851EBE37101F0004507D54FF0A7
:10684000000EDCF1000C7EEB00006EEB0101B1F5F7
:10685000801F1BD3B1F5001F0CD349085FEA30003D
:106860004FEA3C0C04F101044FEA445212F5800F48
:1068700080F09A80BCF1004F08BF5FEA500C50F1E5
:10688000000041EB045141EA050130BD5FEA4C0CC8
:10689000404141EB0101013C28BFB1F5801FE9D225
:1068A00091F0000F04BF01460020B1FA81F308BF48
:1068B0002033A3F10B03B3F120020CDA0C3208DD14
:1068C00002F1140CC2F10C0201FA0CF021FA02F1EF
:1068D0000CE002F11402D8BFC2F1200C01FA02F15F
:1068E00020FA0CFCDCBF41EA0C019040E41AA2BF84
:1068F00001EB0451294330BD6FEA04041F3C1CDA4C
:106900000C340EDC04F11404C4F1200220FA04F06B
:1069100001FA02F340EA030021FA04F345EA030115
:1069200030BDC4F10C04C4F1200220FA02F001FAD7
:1069300004F340EA0300294630BD21FA04F0294659
:1069400030BD94F0000F83F4801306BF81F48011F2
:106950000134013D4EE77FEA645C18BF7FEA655C65
:1069600029D094EA050F08BF90EA020F05D054EA37
:10697000000C04BF1946104630BD91EA030F1EBF3C
:106980000021002030BD5FEA545C05D14000494140
:1069900028BF41F0004130BD14F580043CBF01F533
:1069A000801130BD01F0004545F0FE4141F4700119
:1069B0004FF0000030BD7FEA645C1ABF19461046F4
:1069C0007FEA655C1CBF0B46024650EA013406BFF5
:1069D00052EA033591EA030F41F4002130BD00BFB4
:1069E00090F0000F04BF0021704730B54FF4806471
:1069F00004F132044FF000054FF0000150E700BFF2
:106A000090F0000F04BF0021704730B54FF4806450
:106A100004F1320410F0004548BF40424FF000013D
:106A20003EE700BF42004FEAE2014FEA31014FEA80
:106A300002701FBF12F07F4393F07F4F81F06051CF
:106A4000704732F07F4208BF704793F07F4F04BF1A
:106A500041F40021704730B54FF4607401F00045F7
:106A600021F000411CE700BF50EA010208BF704757
:106A700030B54FF000050AE050EA010208BF704748
:106A800030B511F0004502D5404261EB41014FF4B1
:106A9000806404F132045FEA915C3FF4D8AE4FF0B9
:106AA00003025FEADC0C18BF03325FEADC0C18BF9C
:106AB000033202EBDC02C2F1200300FA03FC20FAED
:106AC00002F001FA03FE40EA0E0021FA02F114443A
:106AD000BDE600BF70B54FF0FF0C4CF4E06C1CEA53
:106AE00011541DBF1CEA135594EA0C0F95EA0C0FC4
:106AF00000F0DEF82C4481EA030621EA4C5123EA37
:106B00004C5350EA013518BF52EA033541F4801165
:106B100043F4801338D0A0FB02CE4FF00005E1FB18
:106B200002E506F00042E0FB03E54FF00006E1FB62
:106B300003569CF0000F18BF4EF0010EA4F1FF04A5
:106B4000B6F5007F64F5407404D25FEA4E0E6D41E5
:106B500046EB060642EAC62141EA55514FEAC520F6
:106B600040EA5E504FEACE2EB4F1FD0C88BFBCF572
:106B7000E06F1ED8BEF1004F08BF5FEA500E50F123
:106B8000000041EB045170BD06F0004646EA0101E9
:106B900040EA020081EA0301B4EB5C04C2BFD4EB1B
:106BA0000C0541EA045170BD41F480114FF0000E14
:106BB000013C00F3AB8014F1360FDEBF002001F082
:106BC000004170BDC4F10004203C35DA0C341BDCFC
:106BD00004F11404C4F1200500FA05F320FA04F0CE
:106BE00001FA05F240EA020001F0004221F0004102
:106BF00010EBD37021FA04F642EB06015EEA430E75
:106C000008BF20EAD37070BDC4F10C04C4F12005A4
:106C100000FA04F320FA05F001FA04F240EA020057
:106C200001F0004110EBD37041F100015EEA430E28
:106C300008BF20EAD37070BDC4F1200500FA05F248
:106C40004EEA020E20FA04F301FA05F243EA0203C7
:106C500021FA04F001F0004121FA04F220EA0200D6
:106C600000EBD3705EEA430E08BF20EAD37070BD1C
:106C700094F0000F0FD101F00046400041EB0101FC
:106C800011F4801F08BF013CF7D041EA060195F0DE
:106C9000000F18BF704703F00046520043EB030398
:106CA00013F4801F08BF013DF7D043EA0603704785
:106CB00094EA0C0F0CEA135518BF95EA0C0F0CD090
:106CC00050EA410618BF52EA4306D1D181EA0301D6
:106CD00001F000414FF0000070BD50EA410606BFD0
:106CE0001046194652EA430619D094EA0C0F02D115
:106CF00050EA013613D195EA0C0F05D152EA03365A
:106D00001CBF104619460AD181EA030101F0004177
:106D100041F0FE4141F470014FF0000070BD41F0C0
:106D2000FE4141F4780170BD70B54FF0FF0C4CF49A
:106D3000E06C1CEA11541DBF1CEA135594EA0C0FB9
:106D400095EA0C0F00F0A7F8A4EB050481EA030E06
:106D500052EA03354FEA013100F088804FEA0333ED
:106D60004FF0805545EA131343EA12634FEA0222BB
:106D700045EA111545EA10654FEA00260EF000417C
:106D80009D4208BF964244F1FD0404F5407402D2CE
:106D90005B084FEA3202B61A65EB03055B084FEA5F
:106DA00032024FF480104FF4002CB6EB020E75EB5C
:106DB000030E22BFB61A754640EA0C005B084FEA84
:106DC0003202B6EB020E75EB030E22BFB61A754601
:106DD00040EA5C005B084FEA3202B6EB020E75EB4C
:106DE000030E22BFB61A754640EA9C005B084FEAC4
:106DF0003202B6EB020E75EB030E22BFB61A7546D1
:106E000040EADC0055EA060E18D04FEA051545EABF
:106E100016754FEA06164FEAC30343EA52734FEA68
:106E2000C2025FEA1C1CC0D111F4801F0BD141EAE1
:106E300000014FF000004FF0004CB6E711F4801F46
:106E400004BF01430020B4F1FD0C88BFBCF5E06F26
:106E50003FF6AFAEB5EB030C04BFB6EB020C5FEA36
:106E6000500C50F1000041EB045170BD0EF0004E8B
:106E70004EEA113114EB5C04C2BFD4EB0C0541EABD
:106E8000045170BD41F480114FF0000E013C90E6BA
:106E900045EA060E8DE60CEA135594EA0C0F08BF7E
:106EA00095EA0C0F3FF43BAF94EA0C0F0AD150EA7D
:106EB00001347FF434AF95EA0C0F7FF425AF104610
:106EC00019462CE795EA0C0F06D152EA03353FF438
:106ED000FDAE1046194622E750EA410618BF52EAB5
:106EE00043067FF4C5AE50EA41047FF40DAF52EA89
:106EF00043057FF4EBAE12E74FF0FF3C06E000BF26
:106F00004FF0010C02E000BF4FF0010C4DF804CD32
:106F10004FEA410C7FEA6C5C4FEA430C18BF7FEAF2
:106F20006C5C1BD001B050EA410C0CBF52EA430C20
:106F300091EA030F02BF90EA020F0020704710F1A0
:106F4000000F91EA030F58BF994208BF90422CBF2F
:106F5000D8176FEAE37040F0010070474FEA410C28
:106F60007FEA6C5C02D150EA013C07D14FEA430C46
:106F70007FEA6C5CD6D152EA033CD3D05DF8040BB7
:106F8000704700BF8446104662468C4619466346E9
:106F900000E000BF01B5FFF7B7FF002848BF10F1C0
:106FA000000F01BD4DF808EDFFF7F4FF0CBF012005
:106FB00000205DF808FB00BF4DF808EDFFF7EAFF81
:106FC00034BF012000205DF808FB00BF4DF808ED3C
:106FD000FFF7E0FF94BF012000205DF808FB00BF31
:106FE0004DF808EDFFF7CEFF94BF012000205DF8BB
:106FF00008FB00BF4DF808EDFFF7C4FF34BF0120C8
:1070000000205DF808FB00BF4FEA410C7FEA6C5C92
:1070100002D150EA013C0AD14FEA430C7FEA6C5C92
:1070200002D152EA033C02D14FF0000070474FF00A
:10703000010070474FEA410212F5001215D211D536
:107040006FF47873B3EB625212D94FEAC12343F065
:10705000004343EA505311F0004F23FA02F018BFE7
:10706000404270474FF00000704750EA013005D1B0
:1070700011F0004008BF6FF0004070474FF0000073
:10708000704700BF4A0011D212F5001211D20DD57F
:107090006FF47873B3EB62520ED44FEAC12343F01E
:1070A000004343EA505323FA02F070474FF00000C8
:1070B000704750EA013002D14FF0FF3070474FF077
:1070C000000070470A22002100F0ECB80A220021DB
:1070D00000F0E8B810B5054C13462CB10A4601463D
:1070E0000220AFF3008010BD2046FCE70000000046
:1070F0000A44914200F1FF3300D1704710B511F8F6
:10710000014B03F8014F9142F9D110BD02440346EF
:10711000934200D1704703F8011BF9E738B50D4BD6
:107120001D68AB6B04467BB91820FEF773F80A4A5A
:107130000A4BA863C0E90023094B83600B238381BA
:1071400001220023C0E90423AB6B00221C615A61B9
:1071500038BD00BF3CE303200E33CDAB34126DE6E7
:10716000ECDE050010F8012B11F8013B012A28BFC5
:107170009A42F7D0D01A7047034613F8012B002A21
:10718000FBD1181A0138704710B50139034632B1E6
:1071900011F8014F03F8014B013A002CF7D11A44C2
:1071A0000021934200D110BD03F8011BF9E7000054
:1071B0002DE9F0473A4E86468C4660461CF8014B56
:1071C000A55D15F00805F8D12D2C33D19CF80040B1
:1071D0004FF0010800F1020C002B5CD0102B0CD1F9
:1071E000302C0AD19CF8000000F0DF0058284DD167
:1071F0009CF8014010230CF1020C08F10047013FFC
:107200000026B7FBF3F9304603FB197AA4F13005E9
:10721000092D18D82C46A34224DD751C07D08145C2
:107220001DD301D1A2451ADB00FB034001261CF847
:10723000014BEBE72B2C08BF9CF80040A84608BF89
:1072400000F1020CC8E7A4F14105192D01D8373C23
:10725000E1E7A4F16105192D04D8573CDBE74FF0B5
:10726000FF36E4E7731C06D12223CEF800303846FF
:1072700042B9BDE8F087B8F1000F00D04042002AC3
:10728000F7D00EB10CF1FF311160F2E73024002B82
:10729000B3D10823B1E7302CA4D00A23ADE700BF57
:1072A0007E7A0D0013460A46014602480068FFF741
:1072B0007FBF00BF3CE3032021400D005D400D0077
:1072C00085400D0089400D0000000000204300258E
:1072D0006900256C6900696E006F75740070776DC8
:1072E000006477006177006B6F33784567593143ED
:1072F000747A5A4C476A48576C4A344450554F7315
:107300006F5A4C4E6D6D7200476F7420612070751E
:107310007368206E6F74696669636174696F6E006B
:10732000507573682073656E7400626C6E6B696E65
:10733000660076657200312E302E3000682D626551
:10734000617400343500627566662D696E003130F7
:10735000323400646576005061727469636C650054
:107360006275696C64004A756C20203420323032BA
:10737000312031343A32333A343200000000000018
:107380009F4D0D009F4D0D009F4D0D009F4D0D0019
:107390009F4D0D009F4D0D009F4D0D009F4D0D0009
:1073A0009F4D0D009F4D0D009F4D0D009F4D0D00F9
:1073B0009F4D0D009F4D0D009F4D0D009F4D0D00E9
:107780000000000000000000C3520D00B9520D00BF
:10779000AF520D00A5520D0099520D008D520D00F3
:1077A00009620D0011620D0081520D0079520D0029
:1077B0006F520D0065520D0041620D000000000087
:1077C000000000006E616E00696E66006F766600F4
:1077D0002E006170700025592D256D2D25645425CE
:1077E000483A254D3A2553257A0061736374696DD3
:1077F000650000000000000000000000F1570D00CF
:10780000E1570D00E3570D000000000000000000EC
:1078100015590D007D590D0053590D00B9530D0038
:1078200045590D0017590D0027590D0077590D00C6
:1078300037590D0011590D00000000000000000034
:10784000215A0D008D5A0D00655A0D00B9530D00D7
:10785000355A0D00515A0D00435A0D005F5A0D0064
:10786000235A0D00275A0D00000000000000000000
:107870001D5B0D00675B0D003F5B0D001F5B0D0086
:10788000475B0D004F5B0D00575B0D005F5B0D000C
:10789000776972696E670072656376206572726FD0
:1078A00072203D2025640000000000000000000060
:1078B0001B5C0D003D5C0D0057600D004B5C0D0026
:1078C0001D5C0D000000000000000000C95C0D0000
:1078D000FD5C0D00995B0D00B35B0D00ED5E0D00CE
:1078E0005F5D0D00315D0D00DD5B0D00F75D0D008E
:1078F0005D600D00935D0D00A15F0D00DF5B0D006D
:10790000115C0D00C55B0D004F5C0D00115D0D009D
:107910000000000000000000AB610D00A1610D003F
:1079200097610D0059610D005B560D008B610D00D4
:1079300009620D0011620D007F610D0077610D007D
:107940006D610D0063610D0041620D0000000000DB
:1079500000000000C9610D00D3610D00DD610D0064
:10796000E7610D00F1610D00FD610D0009620D0080
:1079700011620D0019620D0025620D002D620D00CF
:1079800037620D0041620D0000537431395F53704E
:107990005F6D616B655F7368617265645F74616779
:1079A00000000000E4790D0089790D00447A0D0093
:1079B000B8790D00687A0D004E31305F5F637878DA
:1079C000616269763131375F5F636C6173735F74D5
:1079D0007970655F696E666F450000000000000009
:1079E000AC790D0085650D0099650D002D670D00C2
:1079F0002D670D0003660D0045650D00EB650D005C
:107A0000AD650D0079650D00447A0D00147A0D0006
:107A1000AC790D004E31305F5F63787861626976D2
:107A20003132305F5F73695F636C6173735F747968
:107A300070655F696E666F45000000000000000021
:107A4000087A0D002D660D0041660D002D670D00B2
:107A50002D670D0003660D0045650D0001670D00E3
:107A60008D660D0055660D00E4790D00707A0D00ED
:107A7000537439747970655F696E666F00002020F9
:107A800020202020202020282828282820202020CE
:107A9000202020202020202020202020202088108E
:107AA00010101010101010101010101010100404EE
:107AB00004040404040404041010101010101041F5
:107AC0004141414141010101010101010101010166
:107AD00001010101010101010110101010101042FB
:107AE0004242424242020202020202020202020236
:107AF0000202020202020202021010101020000014
:107B00000000000000000000000000000000000075
:107B10000000000000000000000000000000000065
:107B20000000000000000000000000000000000055
:107B30000000000000000000000000000000000045
:107B40000000000000000000000000000000000035
:107B50000000000000000000000000000000000025
:107B60000000000000000000000000000000000015
:107B70000000000000000000000000000000000005
:107B8000994B0D00CD520D0015530D0091530D0072
:107B900069560D0079560D00A1560D00B5610D0016
:107BA00021630D0000000000000000000000000044
:047BB00000000000D1
:107BB40001000000EA770D0040E30320000000000C
:107BC40000000000000000000000000000000000B1
:107BD40000000000000000000000000000000000A1
:107BE4000000000000000000000000000000000091
:107BF4000000000000000000000000000000000081
:107C04000000000000000000000000000000000070
:0C7C140000000000000000000000000064
:107C2000FFFFFFFF00000102030405060708090A21
:107C30000B0C0D0E0F101112131415161718191A1C
:087C40001B1C1D1E1F20280063
:047C48007856341224
:04000003D0004020C9
:00000001FF
